{"abi":[{"type":"function","name":"balanceOf","inputs":[{"name":"","type":"address","internalType":"address"}],"outputs":[{"name":"","type":"uint256","internalType":"uint256"}],"stateMutability":"view"},{"type":"function","name":"decimals","inputs":[],"outputs":[{"name":"","type":"uint8","internalType":"uint8"}],"stateMutability":"view"},{"type":"function","name":"mint","inputs":[{"name":"to","type":"address","internalType":"address"},{"name":"amount","type":"uint256","internalType":"uint256"}],"outputs":[],"stateMutability":"nonpayable"},{"type":"function","name":"name","inputs":[],"outputs":[{"name":"","type":"string","internalType":"string"}],"stateMutability":"view"},{"type":"function","name":"symbol","inputs":[],"outputs":[{"name":"","type":"string","internalType":"string"}],"stateMutability":"view"},{"type":"function","name":"transfer","inputs":[{"name":"to","type":"address","internalType":"address"},{"name":"amount","type":"uint256","internalType":"uint256"}],"outputs":[{"name":"","type":"bool","internalType":"bool"}],"stateMutability":"nonpayable"}],"bytecode":{"object":"0x60806040526040518060400160405280600481526020017f4d6f636b000000000000000000000000000000000000000000000000000000008152505f90816100479190610307565b506040518060400160405280600381526020017f4d434b00000000000000000000000000000000000000000000000000000000008152506001908161008c9190610307565b50601260025f6101000a81548160ff021916908360ff1602179055503480156100b3575f5ffd5b506103d6565b5f81519050919050565b7f4e487b71000000000000000000000000000000000000000000000000000000005f52604160045260245ffd5b7f4e487b71000000000000000000000000000000000000000000000000000000005f52602260045260245ffd5b5f600282049050600182168061013457607f821691505b602082108103610147576101466100f0565b5b50919050565b5f819050815f5260205f209050919050565b5f6020601f8301049050919050565b5f82821b905092915050565b5f600883026101a97fffffffffffffffffffffffffffffffffffffffffffffffffffffffffffffffff8261016e565b6101b3868361016e565b95508019841693508086168417925050509392505050565b5f819050919050565b5f819050919050565b5f6101f76101f26101ed846101cb565b6101d4565b6101cb565b9050919050565b5f819050919050565b610210836101dd565b61022461021c826101fe565b84845461017a565b825550505050565b5f5f905090565b61023b61022c565b610246818484610207565b505050565b5f5b8281101561026c576102615f828401610233565b60018101905061024d565b505050565b601f8211156102bf57828211156102be5761028b8161014d565b6102948361015f565b61029d8561015f565b60208610156102aa575f90505b8083016102b98284038261024b565b505050505b5b505050565b5f82821c905092915050565b5f6102df5f19846008026102c4565b1980831691505092915050565b5f6102f783836102d0565b9150826002028217905092915050565b610310826100b9565b67ffffffffffffffff811115610329576103286100c3565b5b610333825461011d565b61033e828285610271565b5f60209050601f83116001811461036f575f841561035d578287015190505b61036785826102ec565b8655506103ce565b601f19841661037d8661014d565b5f5b828110156103a45784890151825560018201915060208501945060208101905061037f565b868310156103c157848901516103bd601f8916826102d0565b8355505b6001600288020188555050505b505050505050565b6107a7806103e35f395ff3fe608060405234801561000f575f5ffd5b5060043610610060575f3560e01c806306fdde0314610064578063313ce5671461008257806340c10f19146100a057806370a08231146100bc57806395d89b41146100ec578063a9059cbb1461010a575b5f5ffd5b61006c61013a565b6040516100799190610470565b60405180910390f35b61008a6101c5565b60405161009791906104ab565b60405180910390f35b6100ba60048036038101906100b59190610555565b6101d7565b005b6100d660048036038101906100d19190610593565b61022e565b6040516100e391906105cd565b60405180910390f35b6100f4610243565b6040516101019190610470565b60405180910390f35b610124600480360381019061011f9190610555565b6102cf565b6040516101319190610600565b60405180910390f35b5f805461014690610646565b80601f016020809104026020016040519081016040528092919081815260200182805461017290610646565b80156101bd5780601f10610194576101008083540402835291602001916101bd565b820191905f5260205f20905b8154815290600101906020018083116101a057829003601f168201915b505050505081565b60025f9054906101000a900460ff1681565b8060035f8473ffffffffffffffffffffffffffffffffffffffff1673ffffffffffffffffffffffffffffffffffffffff1681526020019081526020015f205f82825461022391906106a3565b925050819055505050565b6003602052805f5260405f205f915090505481565b6001805461025090610646565b80601f016020809104026020016040519081016040528092919081815260200182805461027c90610646565b80156102c75780601f1061029e576101008083540402835291602001916102c7565b820191905f5260205f20905b8154815290600101906020018083116102aa57829003601f168201915b505050505081565b5f8160035f3373ffffffffffffffffffffffffffffffffffffffff1673ffffffffffffffffffffffffffffffffffffffff1681526020019081526020015f20541015610350576040517f08c379a000000000000000000000000000000000000000000000000000000000815260040161034790610720565b60405180910390fd5b8160035f3373ffffffffffffffffffffffffffffffffffffffff1673ffffffffffffffffffffffffffffffffffffffff1681526020019081526020015f205f82825461039c919061073e565b925050819055508160035f8573ffffffffffffffffffffffffffffffffffffffff1673ffffffffffffffffffffffffffffffffffffffff1681526020019081526020015f205f8282546103ef91906106a3565b925050819055506001905092915050565b5f81519050919050565b5f82825260208201905092915050565b8281835e5f83830152505050565b5f601f19601f8301169050919050565b5f61044282610400565b61044c818561040a565b935061045c81856020860161041a565b61046581610428565b840191505092915050565b5f6020820190508181035f8301526104888184610438565b905092915050565b5f60ff82169050919050565b6104a581610490565b82525050565b5f6020820190506104be5f83018461049c565b92915050565b5f5ffd5b5f73ffffffffffffffffffffffffffffffffffffffff82169050919050565b5f6104f1826104c8565b9050919050565b610501816104e7565b811461050b575f5ffd5b50565b5f8135905061051c816104f8565b92915050565b5f819050919050565b61053481610522565b811461053e575f5ffd5b50565b5f8135905061054f8161052b565b92915050565b5f5f6040838503121561056b5761056a6104c4565b5b5f6105788582860161050e565b925050602061058985828601610541565b9150509250929050565b5f602082840312156105a8576105a76104c4565b5b5f6105b58482850161050e565b91505092915050565b6105c781610522565b82525050565b5f6020820190506105e05f8301846105be565b92915050565b5f8115159050919050565b6105fa816105e6565b82525050565b5f6020820190506106135f8301846105f1565b92915050565b7f4e487b71000000000000000000000000000000000000000000000000000000005f52602260045260245ffd5b5f600282049050600182168061065d57607f821691505b6020821081036106705761066f610619565b5b50919050565b7f4e487b71000000000000000000000000000000000000000000000000000000005f52601160045260245ffd5b5f6106ad82610522565b91506106b883610522565b92508282019050808211156106d0576106cf610676565b5b92915050565b7f696e73756666696369656e7400000000000000000000000000000000000000005f82015250565b5f61070a600c8361040a565b9150610715826106d6565b602082019050919050565b5f6020820190508181035f830152610737816106fe565b9050919050565b5f61074882610522565b915061075383610522565b925082820390508181111561076b5761076a610676565b5b9291505056fea2646970667358221220712e67ee7870bd1fd76b9916b3dbab9c39cdcb53049aa789971c9b79e4c6de6b64736f6c63430008220033","linkReferences":{}},"methodIdentifiers":{"balanceOf(address)":"70a08231","decimals()":"313ce567","mint(address,uint256)":"40c10f19","name()":"06fdde03","symbol()":"95d89b41","transfer(address,uint256)":"a9059cbb"},"id":19}