{"abi":[{"type":"constructor","inputs":[{"name":"_authorizer","type":"address","internalType":"address"},{"name":"_token","type":"address","internalType":"contract MockERC20"}],"stateMutability":"nonpayable"},{"type":"function","name":"CLAIM_TYPEHASH","inputs":[],"outputs":[{"name":"","type":"bytes32","internalType":"bytes32"}],"stateMutability":"view"},{"type":"function","name":"DOMAIN_SEPARATOR","inputs":[],"outputs":[{"name":"","type":"bytes32","internalType":"bytes32"}],"stateMutability":"view"},{"type":"function","name":"authorizer","inputs":[],"outputs":[{"name":"","type":"address","internalType":"address"}],"stateMutability":"view"},{"type":"function","name":"claim","inputs":[{"name":"to","type":"address","internalType":"address"},{"name":"amount","type":"uint256","internalType":"uint256"},{"name":"v","type":"uint8","internalType":"uint8"},{"name":"r","type":"bytes32","internalType":"bytes32"},{"name":"s","type":"bytes32","internalType":"bytes32"}],"outputs":[],"stateMutability":"nonpayable"},{"type":"function","name":"token","inputs":[],"outputs":[{"name":"","type":"address","internalType":"contract MockERC20"}],"stateMutability":"view"},{"type":"function","name":"usedDigest","inputs":[{"name":"","type":"bytes32","internalType":"bytes32"}],"outputs":[{"name":"","type":"bool","internalType":"bool"}],"stateMutability":"view"}],"bytecode":{"object":"0x60e060405234801561000f575f5ffd5b50604051610f56380380610f5683398181016040528101906100319190610207565b8173ffffffffffffffffffffffffffffffffffffffff1660a08173ffffffffffffffffffffffffffffffffffffffff16815250508073ffffffffffffffffffffffffffffffffffffffff1660c08173ffffffffffffffffffffffffffffffffffffffff16815250507f8b73c3c69bb8fe3d512ecc4cf759cc79239f7b179b0ffacaa9a75d522b39400f6040518060400160405280600e81526020017f5369676e6174757265436c61696d000000000000000000000000000000000000815250805190602001206040518060400160405280600181526020017f310000000000000000000000000000000000000000000000000000000000000081525080519060200120463060405160200161014a959493929190610284565b604051602081830303815290604052805190602001206080818152505050506102d5565b5f5ffd5b5f73ffffffffffffffffffffffffffffffffffffffff82169050919050565b5f61019b82610172565b9050919050565b6101ab81610191565b81146101b5575f5ffd5b50565b5f815190506101c6816101a2565b92915050565b5f6101d682610191565b9050919050565b6101e6816101cc565b81146101f0575f5ffd5b50565b5f81519050610201816101dd565b92915050565b5f5f6040838503121561021d5761021c61016e565b5b5f61022a858286016101b8565b925050602061023b858286016101f3565b9150509250929050565b5f819050919050565b61025781610245565b82525050565b5f819050919050565b61026f8161025d565b82525050565b61027e81610191565b82525050565b5f60a0820190506102975f83018861024e565b6102a4602083018761024e565b6102b1604083018661024e565b6102be6060830185610266565b6102cb6080830184610275565b9695505050505050565b60805160a05160c051610c426103145f395f818161049f015261058301525f818161018e01526103b101525f818161012a01526102ba0152610c425ff3fe608060405234801561000f575f5ffd5b5060043610610060575f3560e01c80633644e515146100645780636b0509b11461008257806389782d2e146100a0578063d09edf31146100d0578063e7d1ebf4146100ee578063fc0c546a1461010a575b5f5ffd5b61006c610128565b60405161007991906105bd565b60405180910390f35b61008a61014c565b60405161009791906105bd565b60405180910390f35b6100ba60048036038101906100b59190610604565b610170565b6040516100c79190610649565b60405180910390f35b6100d861018c565b6040516100e591906106a1565b60405180910390f35b6101086004803603810190610103919061074d565b6101b0565b005b610112610581565b60405161011f919061081f565b60405180910390f35b7f000000000000000000000000000000000000000000000000000000000000000081565b7f9d6f50fd6f748cb717c5d642914873e60246a2b296e451d76a49d3326a28680881565b5f602052805f5260405f205f915054906101000a900460ff1681565b7f000000000000000000000000000000000000000000000000000000000000000081565b7f7fffffffffffffffffffffffffffffff5d576e7357a4501ddfe92f46681b20a0815f1c1115610215576040517f08c379a000000000000000000000000000000000000000000000000000000000815260040161020c90610892565b60405180910390fd5b601b8360ff16148061022a5750601c8360ff16145b610269576040517f08c379a0000000000000000000000000000000000000000000000000000000008152600401610260906108fa565b60405180910390fd5b5f7f9d6f50fd6f748cb717c5d642914873e60246a2b296e451d76a49d3326a286808868660405160200161029f93929190610927565b6040516020818303038152906040528051906020012090505f7f0000000000000000000000000000000000000000000000000000000000000000826040516020016102eb9291906109d0565b6040516020818303038152906040528051906020012090505f5f8281526020019081526020015f205f9054906101000a900460ff1615610360576040517f08c379a000000000000000000000000000000000000000000000000000000000815260040161035790610a50565b60405180910390fd5b5f6001828787876040515f81526020016040526040516103839493929190610a7d565b6020604051602081039080840390855afa1580156103a3573d5f5f3e3d5ffd5b5050506020604051035190507f000000000000000000000000000000000000000000000000000000000000000073ffffffffffffffffffffffffffffffffffffffff168173ffffffffffffffffffffffffffffffffffffffff1614801561043657505f73ffffffffffffffffffffffffffffffffffffffff168173ffffffffffffffffffffffffffffffffffffffff1614155b610475576040517f08c379a000000000000000000000000000000000000000000000000000000000815260040161046c90610b0a565b60405180910390fd5b60015f5f8481526020019081526020015f205f6101000a81548160ff0219169083151502179055507f000000000000000000000000000000000000000000000000000000000000000073ffffffffffffffffffffffffffffffffffffffff1663a9059cbb89896040518363ffffffff1660e01b81526004016104f8929190610b28565b6020604051808303815f875af1158015610514573d5f5f3e3d5ffd5b505050506040513d601f19601f820116820180604052508101906105389190610b79565b610577576040517f08c379a000000000000000000000000000000000000000000000000000000000815260040161056e90610bee565b60405180910390fd5b5050505050505050565b7f000000000000000000000000000000000000000000000000000000000000000081565b5f819050919050565b6105b7816105a5565b82525050565b5f6020820190506105d05f8301846105ae565b92915050565b5f5ffd5b6105e3816105a5565b81146105ed575f5ffd5b50565b5f813590506105fe816105da565b92915050565b5f60208284031215610619576106186105d6565b5b5f610626848285016105f0565b91505092915050565b5f8115159050919050565b6106438161062f565b82525050565b5f60208201905061065c5f83018461063a565b92915050565b5f73ffffffffffffffffffffffffffffffffffffffff82169050919050565b5f61068b82610662565b9050919050565b61069b81610681565b82525050565b5f6020820190506106b45f830184610692565b92915050565b6106c381610681565b81146106cd575f5ffd5b50565b5f813590506106de816106ba565b92915050565b5f819050919050565b6106f6816106e4565b8114610700575f5ffd5b50565b5f81359050610711816106ed565b92915050565b5f60ff82169050919050565b61072c81610717565b8114610736575f5ffd5b50565b5f8135905061074781610723565b92915050565b5f5f5f5f5f60a08688031215610766576107656105d6565b5b5f610773888289016106d0565b955050602061078488828901610703565b945050604061079588828901610739565b93505060606107a6888289016105f0565b92505060806107b7888289016105f0565b9150509295509295909350565b5f819050919050565b5f6107e76107e26107dd84610662565b6107c4565b610662565b9050919050565b5f6107f8826107cd565b9050919050565b5f610809826107ee565b9050919050565b610819816107ff565b82525050565b5f6020820190506108325f830184610810565b92915050565b5f82825260208201905092915050565b7f6d616c6c6561626c65207369676e6174757265000000000000000000000000005f82015250565b5f61087c601383610838565b915061088782610848565b602082019050919050565b5f6020820190508181035f8301526108a981610870565b9050919050565b7f62616420760000000000000000000000000000000000000000000000000000005f82015250565b5f6108e4600583610838565b91506108ef826108b0565b602082019050919050565b5f6020820190508181035f830152610911816108d8565b9050919050565b610921816106e4565b82525050565b5f60608201905061093a5f8301866105ae565b6109476020830185610692565b6109546040830184610918565b949350505050565b5f81905092915050565b7f19010000000000000000000000000000000000000000000000000000000000005f82015250565b5f61099a60028361095c565b91506109a582610966565b600282019050919050565b5f819050919050565b6109ca6109c5826105a5565b6109b0565b82525050565b5f6109da8261098e565b91506109e682856109b9565b6020820191506109f682846109b9565b6020820191508190509392505050565b7f636c61696d20616c7265616479206578656375746564000000000000000000005f82015250565b5f610a3a601683610838565b9150610a4582610a06565b602082019050919050565b5f6020820190508181035f830152610a6781610a2e565b9050919050565b610a7781610717565b82525050565b5f608082019050610a905f8301876105ae565b610a9d6020830186610a6e565b610aaa60408301856105ae565b610ab760608301846105ae565b95945050505050565b7f626164207369676e6174757265000000000000000000000000000000000000005f82015250565b5f610af4600d83610838565b9150610aff82610ac0565b602082019050919050565b5f6020820190508181035f830152610b2181610ae8565b9050919050565b5f604082019050610b3b5f830185610692565b610b486020830184610918565b9392505050565b610b588161062f565b8114610b62575f5ffd5b50565b5f81519050610b7381610b4f565b92915050565b5f60208284031215610b8e57610b8d6105d6565b5b5f610b9b84828501610b65565b91505092915050565b7f7472616e73666572206661696c656400000000000000000000000000000000005f82015250565b5f610bd8600f83610838565b9150610be382610ba4565b602082019050919050565b5f6020820190508181035f830152610c0581610bcc565b905091905056fea264697066735822122031115180433f8383b5aede38227f9095900f35b81f32c5e3ec7d94ecf87c6d2664736f6c63430008220033","linkReferences":{}},"methodIdentifiers":{"CLAIM_TYPEHASH()":"6b0509b1","DOMAIN_SEPARATOR()":"3644e515","authorizer()":"d09edf31","claim(address,uint256,uint8,bytes32,bytes32)":"e7d1ebf4","token()":"fc0c546a","usedDigest(bytes32)":"89782d2e"},"id":20}