{"abi":[{"type":"constructor","inputs":[{"name":"_authorizer","type":"address","internalType":"address"},{"name":"_token","type":"address","internalType":"contract MockERC20"}],"stateMutability":"nonpayable"},{"type":"function","name":"CLAIM_TYPEHASH","inputs":[],"outputs":[{"name":"","type":"bytes32","internalType":"bytes32"}],"stateMutability":"view"},{"type":"function","name":"DOMAIN_SEPARATOR","inputs":[],"outputs":[{"name":"","type":"bytes32","internalType":"bytes32"}],"stateMutability":"view"},{"type":"function","name":"authorizer","inputs":[],"outputs":[{"name":"","type":"address","internalType":"address"}],"stateMutability":"view"},{"type":"function","name":"claim","inputs":[{"name":"to","type":"address","internalType":"address"},{"name":"amount","type":"uint256","internalType":"uint256"},{"name":"v","type":"uint8","internalType":"uint8"},{"name":"r","type":"bytes32","internalType":"bytes32"},{"name":"s","type":"bytes32","internalType":"bytes32"}],"outputs":[],"stateMutability":"nonpayable"},{"type":"function","name":"token","inputs":[],"outputs":[{"name":"","type":"address","internalType":"contract MockERC20"}],"stateMutability":"view"},{"type":"function","name":"usedSig","inputs":[{"name":"","type":"bytes32","internalType":"bytes32"}],"outputs":[{"name":"","type":"bool","internalType":"bool"}],"stateMutability":"view"}],"bytecode":{"object":"0x60e060405234801561000f575f5ffd5b50604051610e6c380380610e6c83398181016040528101906100319190610207565b8173ffffffffffffffffffffffffffffffffffffffff1660a08173ffffffffffffffffffffffffffffffffffffffff16815250508073ffffffffffffffffffffffffffffffffffffffff1660c08173ffffffffffffffffffffffffffffffffffffffff16815250507f8b73c3c69bb8fe3d512ecc4cf759cc79239f7b179b0ffacaa9a75d522b39400f6040518060400160405280600e81526020017f5369676e6174757265436c61696d000000000000000000000000000000000000815250805190602001206040518060400160405280600181526020017f310000000000000000000000000000000000000000000000000000000000000081525080519060200120463060405160200161014a959493929190610284565b604051602081830303815290604052805190602001206080818152505050506102d5565b5f5ffd5b5f73ffffffffffffffffffffffffffffffffffffffff82169050919050565b5f61019b82610172565b9050919050565b6101ab81610191565b81146101b5575f5ffd5b50565b5f815190506101c6816101a2565b92915050565b5f6101d682610191565b9050919050565b6101e6816101cc565b81146101f0575f5ffd5b50565b5f81519050610201816101dd565b92915050565b5f5f6040838503121561021d5761021c61016e565b5b5f61022a858286016101b8565b925050602061023b858286016101f3565b9150509250929050565b5f819050919050565b61025781610245565b82525050565b5f819050919050565b61026f8161025d565b82525050565b61027e81610191565b82525050565b5f60a0820190506102975f83018861024e565b6102a4602083018761024e565b6102b1604083018661024e565b6102be6060830185610266565b6102cb6080830184610275565b9695505050505050565b60805160a05160c051610b586103145f395f818161041401526104f901525f818161018e015261032601525f818161012a015261028c0152610b585ff3fe608060405234801561000f575f5ffd5b5060043610610060575f3560e01c80633644e515146100645780636b0509b11461008257806379e37fce146100a0578063d09edf31146100d0578063e7d1ebf4146100ee578063fc0c546a1461010a575b5f5ffd5b61006c610128565b6040516100799190610533565b60405180910390f35b61008a61014c565b6040516100979190610533565b60405180910390f35b6100ba60048036038101906100b5919061057a565b610170565b6040516100c791906105bf565b60405180910390f35b6100d861018c565b6040516100e59190610617565b60405180910390f35b610108600480360381019061010391906106c3565b6101b0565b005b6101126104f7565b60405161011f9190610795565b60405180910390f35b7f000000000000000000000000000000000000000000000000000000000000000081565b7f9d6f50fd6f748cb717c5d642914873e60246a2b296e451d76a49d3326a28680881565b5f602052805f5260405f205f915054906101000a900460ff1681565b7f000000000000000000000000000000000000000000000000000000000000000081565b5f8282856040516020016101c693929190610802565b6040516020818303038152906040528051906020012090505f5f8281526020019081526020015f205f9054906101000a900460ff161561023b576040517f08c379a000000000000000000000000000000000000000000000000000000000815260040161023290610898565b60405180910390fd5b5f7f9d6f50fd6f748cb717c5d642914873e60246a2b296e451d76a49d3326a2868088787604051602001610271939291906108c5565b6040516020818303038152906040528051906020012090505f7f0000000000000000000000000000000000000000000000000000000000000000826040516020016102bd92919061094e565b6040516020818303038152906040528051906020012090505f6001828888886040515f81526020016040526040516102f89493929190610993565b6020604051602081039080840390855afa158015610318573d5f5f3e3d5ffd5b5050506020604051035190507f000000000000000000000000000000000000000000000000000000000000000073ffffffffffffffffffffffffffffffffffffffff168173ffffffffffffffffffffffffffffffffffffffff161480156103ab57505f73ffffffffffffffffffffffffffffffffffffffff168173ffffffffffffffffffffffffffffffffffffffff1614155b6103ea576040517f08c379a00000000000000000000000000000000000000000000000000000000081526004016103e190610a20565b60405180910390fd5b60015f5f8681526020019081526020015f205f6101000a81548160ff0219169083151502179055507f000000000000000000000000000000000000000000000000000000000000000073ffffffffffffffffffffffffffffffffffffffff1663a9059cbb8a8a6040518363ffffffff1660e01b815260040161046d929190610a3e565b6020604051808303815f875af1158015610489573d5f5f3e3d5ffd5b505050506040513d601f19601f820116820180604052508101906104ad9190610a8f565b6104ec576040517f08c379a00000000000000000000000000000000000000000000000000000000081526004016104e390610b04565b60405180910390fd5b505050505050505050565b7f000000000000000000000000000000000000000000000000000000000000000081565b5f819050919050565b61052d8161051b565b82525050565b5f6020820190506105465f830184610524565b92915050565b5f5ffd5b6105598161051b565b8114610563575f5ffd5b50565b5f8135905061057481610550565b92915050565b5f6020828403121561058f5761058e61054c565b5b5f61059c84828501610566565b91505092915050565b5f8115159050919050565b6105b9816105a5565b82525050565b5f6020820190506105d25f8301846105b0565b92915050565b5f73ffffffffffffffffffffffffffffffffffffffff82169050919050565b5f610601826105d8565b9050919050565b610611816105f7565b82525050565b5f60208201905061062a5f830184610608565b92915050565b610639816105f7565b8114610643575f5ffd5b50565b5f8135905061065481610630565b92915050565b5f819050919050565b61066c8161065a565b8114610676575f5ffd5b50565b5f8135905061068781610663565b92915050565b5f60ff82169050919050565b6106a28161068d565b81146106ac575f5ffd5b50565b5f813590506106bd81610699565b92915050565b5f5f5f5f5f60a086880312156106dc576106db61054c565b5b5f6106e988828901610646565b95505060206106fa88828901610679565b945050604061070b888289016106af565b935050606061071c88828901610566565b925050608061072d88828901610566565b9150509295509295909350565b5f819050919050565b5f61075d610758610753846105d8565b61073a565b6105d8565b9050919050565b5f61076e82610743565b9050919050565b5f61077f82610764565b9050919050565b61078f81610775565b82525050565b5f6020820190506107a85f830184610786565b92915050565b5f819050919050565b6107c86107c38261051b565b6107ae565b82525050565b5f8160f81b9050919050565b5f6107e4826107ce565b9050919050565b6107fc6107f78261068d565b6107da565b82525050565b5f61080d82866107b7565b60208201915061081d82856107b7565b60208201915061082d82846107eb565b600182019150819050949350505050565b5f82825260208201905092915050565b7f7369676e617475726520616c72656164792075736564000000000000000000005f82015250565b5f61088260168361083e565b915061088d8261084e565b602082019050919050565b5f6020820190508181035f8301526108af81610876565b9050919050565b6108bf8161065a565b82525050565b5f6060820190506108d85f830186610524565b6108e56020830185610608565b6108f260408301846108b6565b949350505050565b5f81905092915050565b7f19010000000000000000000000000000000000000000000000000000000000005f82015250565b5f6109386002836108fa565b915061094382610904565b600282019050919050565b5f6109588261092c565b915061096482856107b7565b60208201915061097482846107b7565b6020820191508190509392505050565b61098d8161068d565b82525050565b5f6080820190506109a65f830187610524565b6109b36020830186610984565b6109c06040830185610524565b6109cd6060830184610524565b95945050505050565b7f626164207369676e6174757265000000000000000000000000000000000000005f82015250565b5f610a0a600d8361083e565b9150610a15826109d6565b602082019050919050565b5f6020820190508181035f830152610a37816109fe565b9050919050565b5f604082019050610a515f830185610608565b610a5e60208301846108b6565b9392505050565b610a6e816105a5565b8114610a78575f5ffd5b50565b5f81519050610a8981610a65565b92915050565b5f60208284031215610aa457610aa361054c565b5b5f610ab184828501610a7b565b91505092915050565b7f7472616e73666572206661696c656400000000000000000000000000000000005f82015250565b5f610aee600f8361083e565b9150610af982610aba565b602082019050919050565b5f6020820190508181035f830152610b1b81610ae2565b905091905056fea2646970667358221220539f0fcb7f960306e0300c83c17685d03ba7b55927178d691eebdeac5989fb5764736f6c63430008220033","linkReferences":{}},"methodIdentifiers":{"CLAIM_TYPEHASH()":"6b0509b1","DOMAIN_SEPARATOR()":"3644e515","authorizer()":"d09edf31","claim(address,uint256,uint8,bytes32,bytes32)":"e7d1ebf4","token()":"fc0c546a","usedSig(bytes32)":"79e37fce"},"id":20}